:020000040800F2
:10000000E0040020D12C0008AD280008AF2800082B
:10001000B1280008B3280008B52800080000000037
:10002000000000000000000000000000B7280008E9
:10003000B928000800000000BB280008A528000817
:10004000ED2C0008F12C0008F52C0008F92C000814
:10005000FD2C0008012D0008052D0008092D0008C1
:100060000D2D0008112D0008152D0008192D000870
:100070001D2D0008212D0008252D0008292D000820
:100080002D2D0008312D0008352D0008000000003E
:10009000000000000000000000000000392D0008F2
:1000A0003D2D0008412D0008452D0008492D000870
:1000B00039280008552800084D2D0008512D00084A
:1000C000552D0008592D00085D2D0008612D0008F0
:1000D000652D0008692D0008F52700086D2D000822
:1000E000712D0008752D0008792D00087D2D000860
:1000F000812D0008852D0008000000000000000090
:100100000000000000000000892D00088D2D00086F
:1001100017280008912D0008952D0008992D00083A
:100120009D2D0008A12D0008A52D0008A92D00086F
:10013000AD2D00082DE9F04FA1B0824601AE0020A0
:1001400017461D467160B0620DF144090AE017F8C8
:10015000011B7068D0470028706000F0B982B06A57
:10016000401CB0623878010001D1B06AB2E22528A3
:10017000EDD1002030617061B061F0613062706279
:1001800001E040F0010017F8011F2029F9D02329D0
:100190000DD02B2904D02D2906D030290AD00CE00F
:1001A00040F0020080B2EEE740F00400FAE740F0D1
:1001B0000800F7E740F01000F4E72A290ED129687B
:1001C000296051F8042B2960002A326304D551427A
:1001D00040F00400316380B27F1C13E000213163E2
:1001E0000BE0316B6FF00043994205D001EB8103C6
:1001F00002EB4301303931637F1C3A78A2F13001C0
:100200000A29EED339782E2903D04FF0FF31F1625D
:100210001FE017F8011F2A2907D1296829607F1CD0
:1002200051F8042B2960F26213E00021F1620BE027
:10023000F16A6FF00043994205D001EB810302EBB4
:1002400043013039F1627F1C3A78A2F130010A296A
:10025000EED3B0860FF68040397800F04BFE08B13F
:1002600017F8010B8DF83A009DF83A00682802BF94
:1002700039786829622005D06C2804BF38786C284A
:1002800003D171208DF83A007F1C11A8F06017F897
:10029000014BB4F125002AD01C3800F0CA80001FA1
:1002A000022840F2C680133800F0EA80093800F0D6
:1002B000C080801E00F05481401E00F02B81401E43
:1002C000022840F2B680001F00F02481401F00F099
:1002D0008180401E00F0D480401E26D0C01E0BD06E
:1002E000801E00F0CD80C01E00F0CA8042E12520B3
:1002F0008DF84400012046E12868286050F8048BFE
:100300002860C6F80880F46A002C04D5404600F046
:10031000FDFD044607E022460021404600F012FEA3
:1003200008B1A0EB080474612EE12968296000225D
:1003300051F8040B29604FF03C0E0021CDE900017B
:1003400011A8B060DDE900019142F46808BF904255
:1003500001D1F26AC2B100F00F033033DBB23A2BA5
:10036000A8BF2733AEF101020009A354964640EA24
:10037000017009090022914208BF904204D0B2687E
:1003800004EB0E039A42E6D304EB0E01B160CEF10A
:100390003C00F16A7061884207DA081AF0614FF692
:1003A000EF71B08E0840B086EEE0002940F1EC809D
:1003B00096F8341001F01401102940F0E580316BFB
:1003C0003269891AF269891A081A0128C0F2DC8098
:1003D000F061D9E09DF83A0062281AD0682806D06A
:1003E0006A280CD06C281CD0712808D019E0286825
:1003F000286050F8041B2860B06A0880C4E02868B0
:10040000286050F8042B2860B06AC117C2E90001C7
:10041000BAE02868286050F8041B2860B06A0870A9
:10042000B2E02868286050F8041B2860B06A0860B1
:10043000AAE02868C01D20F007022A60D2E9000166
:1004400008322A60CDE90001002902D530692D214A
:1004500009E0B08E810702D530692B2103E0C00787
:1004600005D53069202109F80010401C306111A821
:1004700031690844B0602146684600F0EBF983E03A
:100480009DF83A006C280DD0712818BF6A2809D150
:100490002868C01D20F007022A60D2E90001083256
:1004A0002A6005E02968296051F8040B29600021C1
:1004B000CDE900019DF83A00682803D1DDE900018B
:1004C00080B20BE0622803D1DDE90001C0B205E093
:1004D000742818BF7A2804D1DDE900010021CDE994
:1004E000000196F83400000731D5DDE90023002033
:1004F000834208BF82422AD044F02000782826D1C7
:100500003069302109F80010401C411C316109F8A4
:1005100000401CE09DF83A00294600F0DEF8CDE9E5
:100520000001DDE9002300218B4202DA30692D2130
:1005300009E0B08E810702D530692B2103E0C007A6
:1005400005D53069202109F80010401C306111A840
:1005500031690844B0602146684600F0F5F813E0C0
:10056000012030612868286050F8041B28608DF84D
:10057000441009E025208DF84400012030611CB1B1
:1005800089F8014002203061306B3169401AF1690D
:10059000401A7169401A316A401AB169401A716A89
:1005A000A0EB010896F83400400711D42020B8F1E0
:1005B000010F8DF840000BDB4446012310AA694669
:1005C000504600F071FC002840F08280641EF4D197
:1005D000D6F810B0BBF1000F11AC0CD014F8011B11
:1005E0007068D0470028706072D0B06A401CBBF1C0
:1005F000010BB062F2D130208DF84000F469012C7B
:1006000009DB012310AA6946504600F04DFC002882
:100610005ED1641EF5D1D6F814B0B468BBF1000FFA
:100620000CD014F8011B7068D047002870604FD0C0
:10063000B06A401CBBF1010BB062F2D130208DF8E2
:100640004000346A012C09DB012310AA6946504698
:1006500000F02AFC00283BD1641EF5D1B068716916
:10066000D6F818B04418BBF1000F0BD014F8011BDA
:100670007068D047706058B3B06A401CBBF1010B82
:10068000B062F3D130208DF84000746A012C08DB91
:10069000012310AA6946504600F006FCC0B9641E4A
:1006A000F6D196F8340040077FF55CAD2020B8F114
:1006B000010F8DF84000FFF655AD012310AA6946E1
:1006C000504600F0F1FB18B9B8F10108F5D149E541
:1006D0004FF0FF3021B0BDE8F08F622826D06828A7
:1006E0001DD06A2808D06C2827D0712804D074281F
:1006F00023D07A280CD020E00868C01D20F0070025
:100700000860D0E900230830086019461046704799
:100710000A680A6052F8040B0A60002170470A68F0
:100720000A6052F8040B0A6000B20BE00A680A6023
:1007300052F8040B0A6040B204E00A680A6052F8FA
:10074000040B0A60C11770472DE9F34305460846BC
:100750002F696F2808BF082405D041F020017829AF
:1007600014BF0A2410243C26D5E90023642818BFAE
:1007700069289046994606D100218B4203DAD8F1C8
:10078000000869EB49090020814508BF80450CD16C
:10079000286B50B9082C38D195F83800000734D5AB
:1007A00030203B2687F83B002FE0701E0090064665
:1007B000404649462246E31700F0F0FB02F13000C4
:1007C000C0B23A2803DB9DF8041051390818B85517
:1007D000494640462246E31700F0E0FB8046894642
:1007E0000020814508BF804503D0E868B9198842D8
:1007F000DBD3082C09D195F83800000705D5B85D82
:10080000302802D0761E3020B855B919E960C6F1FB
:100810003C00296BA861884208DA081A28624FF662
:10082000EF71288F08402887BDE8F38300290ED593
:1008300095F8381001F01401102908D1696B6A6924
:10084000891A2A6A891A0E1A012EA8BF2E62BDE8DB
:10085000F38300002DE9F24F04468EB0D4E9000185
:10086000CDE9020104AF9DF8380040F0200BBBF148
:10087000610F0AD0206B002848BF062004D408BFAF
:10088000BBF1670F01D1012020636168C1F30A50F9
:1008900040F2FF7290421CD1080304BF2068002878
:1008A00009D10320A0619DF8380061381A2835D39A
:1008B0000FF2386108E00320A0619DF8380061382C
:1008C0001A2828D30FF21C61E068032200F0DEFB37
:1008D000BDE1012815DA204600F013FC012810DBE9
:1008E00000250020BBF1610F1FD1E16830220A70A2
:1008F0008A1CE2609DF83820612A0CBF78225822B9
:100900000FE0626840F2FE3161F31E52451A6260E8
:100910004FF0FF30E6E70FF2C851D5E70FF2C851AC
:10092000D2E74A706169891C616110B9002600250F
:1009300084E1BBF1610F40F09880206BD4E900ABFB
:1009400000284CBF2126461CDDE9020100220023BD
:1009500000F0FAFB36B23ABF8BF00040CDE902A0BE
:10096000CDE902AB06F101082D1FB8F1010F8DF89A
:1009700010200DF1110736DBDDE902010022002312
:1009800000F0FAFB2FD21C2102A800F00DFCDDE9DB
:10099000020100F08FFCA8F10708B8F1010F8146B1
:1009A00009DB00F0B3FC02460B46DDE9020100F072
:1009B000C5FCCDE90201F81D072105E009F00F0291
:1009C00000F8012D4FEA2919B9F1010F01DB491E89
:1009D000F4D5491E5CBF002200F8012DF9D5C71DD2
:1009E000B8F1010FC8DA0DF11100391AB142B8BFE0
:1009F0000E4636B230000DF111072FD4884206DAC8
:100A000004A9014449780829A8BF0F2100DA002170
:100A100004AA024400E0761E12F80139401E8B42FF
:100A2000F9D00F2904D104A901444A78521C4A7014
:100A3000002802D504AF761C2D1D36B2701E0DD4D1
:100A400039180A783032D2B23A2A03DB9DF83830AE
:100A50003A3B9A18401E01F80129F2D5206B002874
:100A600040F1EC80701E2063E8E0DDE90201002225
:100A7000002300F069FB3CBF81F00041CDE9020199
:100A80002DB247F2975068434B49DFF8309190FB05
:100A9000F1F52DB2C5F1070ABAF1010F90461CDB42
:100AA000DDE902675FEACA7007D542464B46304629
:100AB000394600F003FD06460F4640464946424689
:100AC0004B464FEA6A0A00F0F9FCBAF1000F804683
:100AD0008946E7D1CDE9026724E0CAF1000A002681
:100AE000374F14E05FEACA7007D542464B4630469E
:100AF000394600F0E3FC06460F464046494642466A
:100B00004B4600F0DBFC4FEA6A0A80468946BAF1A0
:100B1000000FE7D1DDE9020132463B4600F0A0FDBF
:100B2000CDE90201BBF1660F216BDFF898900CBF95
:100B300005F10A0006204618142EA8BF13263020FF
:100B40008DF810000DF11107012E3DDBDDE90201EA
:100B500000F0C6FB07F1080104220A23B0FBF3F3FF
:100B600003EB8307A0EB4700303001F8010C0A20AB
:100B7000B3FBF0F000EB8007A3EB47033033521ECA
:100B800001F8023DE9D1083E012E01F10807DBDB47
:100B9000DDE9020100F0A4FB00F0C2FB02460B46B7
:100BA000DDE9020100F0CAFB00224B4600F086FCA2
:100BB000CDE90201CAE700BFA08601000000244081
:100BC0000000F03F84D797410DF11100381A0DF164
:100BD000110702E0401E6D1E7F1C39783029F9D0C4
:100BE000BBF1660F08BF691C04D0BBF1650F0CBFD9
:100BF00001210021226B8E1836B2B042B8BF0646E2
:100C000036B231001AD4814204DA785C3528A8BFA4
:100C1000392000DA30207A18521E00E0761E12F8D1
:100C20000139491E8342F9D0392802D1785C401C31
:100C30007854002902D57F1E761C6D1C2DB29DF8BC
:100C40003810009533B23A46204600F003F80FB052
:100C5000BDE8F08F2DE9F04786B006468A469046FB
:100C60001D4600F046FE012D406A376B90F800905B
:100C700002DA01250FF278284AF02000BDF9384049
:100C8000662808BF641C12D0672878D114F1040FBD
:100C90007BDBBC4279DA96F83800641C000702D48A
:100CA000BD42B8BF2F4624B23F1B48BF002724B225
:100CB000F068B169012C23DA4A1C30234354012F18
:100CC00003DA96F83800000703D5F06800F80290C0
:100CD000521CE742B8BF7C4224B260427062E719FE
:100CE000AF42B261B8BF3D46F068B3692DB2F5615D
:100CF0002A464146184400F0C9F9781BB062BCE0AE
:100D000022469542084416DA2A46414600F0BEF9CA
:100D1000B1696918601B012FB161706203DA96F83E
:100D20003800000705D5F06800F80190F069401C14
:100D3000F061B762A1E0414600F0A8F9B06920185F
:100D40002D1B012F03DA96F83810090703D5F16837
:100D500001F80090401CB0612DB2AF42B8BF3D46D3
:100D6000F068B3692DB22A4608EB0401184400F07C
:100D70008DF9B0692818B061781B70627DE0BAF116
:100D8000610F14D14FF0700A16E0BD4204DA96F8F4
:100D90003810090758BF2F467F1E48BF0027BAF1F9
:100DA000670F14BF4FF0450A4FF0650A04E0BAF12F
:100DB000410F08BF4FF0500AB169F368481CB06199
:100DC000012F18F8012B5A5403DA96F83810090746
:100DD00017D5F168431CB36101F80090012F10DBB7
:100DE0006D1E2DB2AF42B8BF3D46F0682DB22A4607
:100DF0004146184400F04AF9B0692818B061781BE0
:100E00007062F068B1690144200081F800A004D448
:100E10002B20487001F1020804E02D224A7001F1F4
:100E200002086442002502AF08E00A22684600F08A
:100E300079FD019807F8010B6D1C009C21B2012976
:100E4000F3DA022D06DA4AF02000652804BF3020CC
:100E500008F8010B4DB9302008F8010B07E06D1EB2
:100E600002A8405D303008F8010B012DF7DAF06878
:100E7000B1690844A8EB0000F06196F8380000F072
:100E8000140010280DD17069B1690818716A08182A
:100E9000F1690818B16A0818716B8842BCBF081A5A
:100EA000306206B0BDE8F087F8B504460D46164638
:100EB0001F46002077B116F8011BA868A047A8605C
:100EC00030B1E86A401CE86200207F1EF3D1F2BD19
:100ED0004FF0FF30F2BD0000686A6C747A4C00007D
:100EE0006E616E004E414E00696E6600494E4600CE
:100EF000300000000278C9B28A421AB11CBF10F853
:100F0000012FF9E718BF00207047000000F101032E
:100F1000810704D010F8011B89B18107FAD102685A
:100F2000B2F10131914311F0803F04BF50F8042F1A
:100F3000F6E710F8011B11B110F8011BFBE7C01A0E
:100F400070470000C9B2830706D0521E22D310F8A2
:100F5000013B9942F7D11FE0083A13D302F1040292
:100F600041EA012141EA014150F8043B121F21BF2F
:100F70004B40A3F1013C2CEA030C1CF0803FF3D062
:100F8000C9B2001F083210F8013B521E28BF91EA77
:100F9000030FF8D818BF0120401E70471B4213D121
:100FA000094236D12AB18446B0FBF2F002FB10C2EE
:100FB000704700F0BFBCFCD30022002370470B0039
:100FC0000200002100207047904271EB030CF6D321
:100FD00070B5B1FA81F4B3FA83F52C1BA340C4F1C8
:100FE000200532FA05F63343A2405FF00046E640A2
:100FF00002E05B085FEA3202841A71EB030524BF4A
:10100000204629467641F4D302000B00300000212F
:1010100070BD012ACFD970B5140C20D0B1FA81F47B
:10102000B2FA82F5C4F120046419B4F12006D6D3D3
:10103000B2405FF00044F440002502E052085FEA4D
:101040003303C61A71EB020E24BF30467146644169
:101050006D41F3D302000B002000290070BD0C4647
:10106000B1FBF2F102FB11452D0445EA1045B5FB39
:10107000F2F402FB145580B240EA0545B5FBF2F0EC
:1010800002FB105240EA044070BD000062B38B07BF
:1010900008D0521E11F8013B00F8013B00F02480FB
:1010A0008B07F6D1830740F0208000BF103A07D3AA
:1010B00030B4B1E83810103AA0E83810F9D230BC9A
:1010C000530724BFB1E80810A0E8081044BF51F846
:1010D000043B40F8043BD20724BF31F8022B20F830
:1010E000022B44BF0B7803707047083A07D3B1E86E
:1010F0000810083A40F8043B40F804CBF7D25307F5
:10110000E4E730B4436803F000420121C3F3130362
:101110004360002B04BF0368002B08D10DE0036877
:10112000DD0F45EA440444605B000360491E4468E7
:10113000E302F4D5C4F31303436043681A434260E7
:10114000084630BC704700004FF4001C1CEB410FF8
:1011500094BF1CEB430F09E041EA030C50EA4C0C2E
:1011600052EA0C0C03D2994208BF9042704714BF58
:101170008B428242704700004FF4001C1CEB410F71
:1011800094BF1CEB430F09E041EA030C50EA4C0CFE
:1011900052EA0C0C03D28B4208BF8242704714BF44
:1011A000994290427047000070B504460D46606851
:1011B000C0F30A5040F2FF71884207D16068000313
:1011C00004BF2068002817D0022070BD20B9204637
:1011D000FFF797FF012866DA012D0FDB40F2FF7160
:1011E000091A8D420AD36068002847BF00202F49A2
:1011F00000202F49C4E90001012070BD4142A942ED
:10120000616806DA6FF31E51401941EA00506060D0
:1012100040E0401E63684519012205F1350062F384
:101220001F53352801F00041636003D36160002043
:10123000206070BD002015F11F0F04DA20682360C4
:101240000022203562606A4212D0401E256880412B
:10125000C2F12003C0439D4045EAD070256866680E
:10126000D54006FA03F32B4323606368D3406360E1
:1012700062680A43B0F1004F626003D80DD1207854
:10128000C0070AD52068401C2060206828B9606823
:10129000401C60604FF0FF3070BD6068884204BF42
:1012A00020680028F6D1002070BD00BF0000F0FFCC
:1012B0000000F07FF446400D40EAC120490006D20C
:1012C00000F014F8004248BF6FF00040604700F0A3
:1012D0000DF84FF0004188428CBF084640426047FD
:1012E000400D40EAC120490080F00D8040F00040F0
:1012F000490DA1F58061491C05D4D1F11F0154BFEE
:10130000C840C01770474FF000007047010040F11F
:101310000980F446404200F005F851F00041604772
:10132000010000BF09D0B0FA80F18840C91CC1F5A6
:101330008461090501EBD02140057047F0B44FF0FE
:10134000004591EA030F44BF6B4000F0F5BA00BFBF
:10135000841A71EB030604D26E40001BB1411219CE
:1013600073414FF4001C1CEB410F34BF7CEB430670
:1013700084E00C0DA4EB1356362E7DDC012E43DCED
:1013800045EAC32343EA525312BFD20292025B08DA
:10139000240545EAC12141EA5051D2EBC0209941D0
:1013A00025D407D1B0FA80F610FA06F164D00020F7
:1013B000203608E0B1FA81F6B140C6F1200220FAE9
:1013C00002F21143B0404FEAF474B4EB465434F0E7
:1013D00001064FEA74040AD8D6F50016760D04F01B
:1013E0000044F04061FA06F25040F1404840C00A23
:1013F00040EA415021F0004128BF5FEA500550F11A
:10140000000044EBD12137E045EAC323DB0A45EA7B
:10141000C121C90AB6F120050EDD42EA0242120CD2
:10142000C5F1200603FA06F6EB4042EA06056D42D6
:10143000984161F100010DE062FA06F5F240554075
:1014400063FA06FC82EA0C02F3405A406D42904176
:1014500061EB030111F4801F05D1641E620502D007
:101460006D004041494121F48011430875F100436A
:1014700050F1000041EB0451F0BC70471CEB410FF0
:1014800015D223F0004352EA43060BD04FEA4C0C2E
:10149000BCEB410F04D80C0D661E342EB7DDEBE714
:1014A000801A994150EA410608BF0021E4E708BFCD
:1014B0001CEB430F28BF6FF00001DDE7B0B581EAF8
:1014C000030C0CF0004C40F2FF7515EA11541DBFDF
:1014D00015EA1357AC42AF4239E0E41923EA455309
:1014E00043F48013C90241F0004141EA505EC70253
:1014F0001100A7FB020200284FF00000EEFB0120C4
:101500004FF00001E3FB072118BF42F00102401831
:1015100000214941E3FB0E01A4F580640F0302D2D0
:1015200052004041494154F101046CDD470872F119
:10153000004250F1000051EB0451A1F580115CBF55
:1015400041EA0C01B0BD4CEA05510020B0BD05EAEE
:101550001357AC4214BFAF4241E050EA410E1CBFEA
:1015600052EA430E02E061460020B0BD24423C44F2
:101570001BD15FEA070EF6D0090302BF0146002027
:10158000AEF1140EB1FA81F7AEEB070401FA07FED3
:101590000C37C7F1200100FA07F7C8404EEA000EE9
:1015A00023EA455343F48013A2E733F00043B3FA30
:1015B00083F704BFB2FA82FE77440B3FE41BB7F116
:1015C000200E2FBF02FA0EF3BB40C7F1200E22FA05
:1015D0000EFE38BF43EA0E03BA40641C82E750EAAD
:1015E000410E14BF52EA430E6FF000014FF4001792
:1015F00017EB430F8ABF194617EB410FB5E74CEACB
:1016000005510020B0BDD4F10104B4F120070FDA78
:10161000C4F12007520828BF42F0010210FA07F572
:1016200001FA07F7E1BF2A43E0403843E1400FE009
:10163000352C98DCC7F1200452EA400220FA07F268
:1016400018BF42F0010231FA07F0A1400A4300211D
:1016500072F1004250F1000051EB0C01B0BD0000EE
:101660002DE9F04140F2FF7581EA030C0CF0004CCB
:1016700015EA11541DBF15EA1357AC42AF42E9E019
:10168000BC41C1F31301C3F31303801A994143F41E
:10169000801304D2641E4000494180185941C90298
:1016A00041EA5051B1FBF3F603FB1611A2FB06759C
:1016B000D7EBC020A94102D2761E80185941C90239
:1016C00041EA5051B1FBF3FE03FB1E11A2FB0E7564
:1016D000D7EBC020A94103D2AEF1010E80185941C9
:1016E000890241EA9051760546EA8E2EB1FBF3F667
:1016F00003FB1611A2FB0675D7EB8020A94102D28D
:10170000761E80185941C90241EA50514EEA060E30
:10171000B1FBF3F603FB1611A2FB0675D7EBC02055
:10172000A94102D2761E80185941C90241EA50519E
:10173000B1FBF3F703FB1711A2FB0735D3EBC02076
:10174000A94167F100070CBF004247F0010766F3AB
:10175000D5274FEA1E31B80814F5806414DDBD07A3
:1017600075F1004250EB0E5051EB045111F5801F02
:101770005CBF41EA0C01BDE8F0814CF07F6141F0B3
:10178000E0410020BDE8F081BD076D0840EA0E5041
:1017900041F48011D4F10104B4F120060ADAC4F155
:1017A00020060200E04001FA06F3E1401843B2408F
:1017B00015430EE0342C14DCC6F1200445EA400544
:1017C0006D0820FA06F2154321FA06F0A1400D43F8
:1017D000002175F1004250F1000051EB0C01BDE811
:1017E000F08100205FEA0C01BDE8F081CFB99218CA
:1017F0005B41B3FA83F704BFB2FA82F6BF190B3F1D
:10180000B7F120062FBF02FA06F3BB40C7F120064E
:1018100022FA06F638BF3343BA401CB1E419641EFD
:101820002FE77F4231F00041B1FA81F404BFB0FAF2
:1018300080F6A4190B3CB4F120062FBF00FA06F184
:10184000A140C4F1200620FA06F638BF3143A0407B
:101850003C1B16E7AC421ABF05EA1357AF4214E02F
:1018600050EA41061CBF52EA4306BFE750EA41076F
:10187000304661461CBF41EA0551BDE8F08152EA9D
:10188000430C08BFC143BDE8F08100204FF40016AF
:1018900016EB410F98BF16EB430F08BF16EB410F35
:1018A00024BFC14305E016EB430F0CBF61464CEA71
:1018B0000551BDE8F081000080B5134800F0A6F89E
:1018C0000FF24C020FF244010160426241600FF2DC
:1018D0004402826381600FF24402C1600161416190
:1018E00081618162C16201634163C26301644164D9
:1018F00001BD10B5044800F089F80446206808B915
:10190000FFF7DAFF204610BD58000020000000005D
:101910002E00000066616C736500000074727565CE
:101920000000000091FBF2F303FB1211C0E900314B
:101930007047000070470000841A71EB030603D261
:10194000001BB141121973414FF4001C1CEB410FF5
:1019500034BF7CEB430443E00C0DA4EB1356352E4F
:1019600050DC45EAC323DB0A45EAC121C912B6F1BE
:1019700020050DDD63FA05F6EB4086EA0305124209
:1019800018BF45F00105C01851F100010CD213E059
:1019900062FA06F5F2405540F3415A40B340F34035
:1019A0005A408018594107D349085FEA30005FEA7E
:1019B000350528BF45F0010501F58011420875F194
:1019C000004250F1000041EB0451F0BC4FF4001C08
:1019D0001CEB410F38BF70470020090D0905704707
:1019E0001CEB410F10D252EA43060BD0BCEB410F67
:1019F00005D80C0DAB43661E342EB5DD02E0AB43BB
:101A000080185941F0BC7047F0BC70477047000027
:101A100000220288DFF8AC31984212D0DFF8BC31E6
:101A200098420ED0B0F1804F0BD0DFF89C31984235
:101A300007D0DFF89831984203D0DFF8943198420C
:101A400004D14FF68F731A404B881A43DFF8843164
:101A5000984208D0DFF88031984204D04FF6FF4317
:101A60001A40CB881A4302808A8882850A880285B8
:101A7000DFF8502190420FD0DFF8602190420BD068
:101A8000DFF85C21904207D0DFF85821904203D064
:101A9000DFF85421904201D1097A01860121818227
:101AA000704730B4002300240022028C4FF6FF63FD
:101AB0001A400284048C8288838B4FF68F752B40EA
:101AC0004FF6FC752B400D882B434FF6FF552C40ED
:101AD0000D8954EA05244D8854EA0524DFF8E450C2
:101AE000A84203D0DFF80451A84217D14FF2FF7586
:101AF0002C404D8954EA05244FF6FF352C408D8843
:101B000054EA05244EF6FF752A404DF6FF752A402B
:101B10008D8952EA0512CD8952EA051282808383AB
:101B2000C9888187048430BC7047C9B2002904D0B9
:101B3000018851F00101018004E001884FF6FE7236
:101B4000114001807047D2B2002A03D0828911432C
:101B5000818103E0828932EA010181817047C9B243
:101B6000002904D0018851F08001018004E001883F
:101B70004FF67F721140018070470022828B4FF632
:101B8000F7731A400A438283704789B2C9430182BE
:101B90007047002200220023028A0A40808911EA4D
:101BA000000392B2002A04D09BB2002B01D0012284
:101BB00000E000221000C0B2704789B2C943018220
:101BC00070470000002C0140000400400008004065
:101BD000000C0040001000400014004000340140A0
:101BE00000400140004401400048014000340140F1
:101BF00080B54E48006850F001004C4908604C48E0
:101C000000684C4908404A490860484800684A4909
:101C10000840464908604548006830F48020434940
:101C200008604348006830F4FE00414908605FF4F2
:101C30001F004249086000F005F85FF0006040496D
:101C4000086001BD80B500F001F801BD82B0002040
:101C50000190002000903548006850F480303349EE
:101C600008603248006810F4003000900198401C71
:101C700001900098002803D10198B0F5A06FF0D131
:101C80002A480068800302D50120009001E000206E
:101C900000900098012847D12A48006850F01000B1
:101CA00028490860274800688008800025490860A6
:101CB0002448006850F00200224908601C4800686F
:101CC0001B4908601A4800681949086018480068EC
:101CD00050F48060164908601548006830F47C10A4
:101CE000134908601248006850F4E8101049086071
:101CF0000E48006850F080700C4908600B4800687E
:101D00008001FBD50A480068800880000849086007
:101D10000748006850F00200054908600448006860
:101D200010F00C000828F9D102B0704700100240F2
:101D3000041002400000FFF8FFFFF6FE081002400A
:101D400008ED00E00020024070B586B004000D00F0
:101D500000200020002100210026A889002826005C
:101D6000208A4CF6FF710840E98808432082A08948
:101D70004EF6F3110840A9882A8911436A89114354
:101D80000843A081A08A4FF6FF410840A989084373
:101D9000A082684600F06AF81A48864201D103988A
:101DA00000E00298A189090406D519214843296851
:101DB0004900B0FBF1F105E0192148432968890089
:101DC000B0FBF1F16420B1FBF0F0000102096423E3
:101DD00003FB1211A289120408D5C9003231642212
:101DE000B1FBF2F111F00701084307E009013231BC
:101DF0006422B1FBF2F111F00F010843208106B01B
:101E000070BD000000380140C9B2002904D08189AA
:101E100051F40051818104E081894DF6FF72114037
:101E200081817047C905C90D818070478088C005D0
:101E3000C00D7047002289B2B1F5007F00880842CA
:101E400001D0012200E000221000C0B27047002241
:101E5000002289B240F66A12914289B20A0A01212F
:101E600011FA02F292B2D1430180704700210021A1
:101E7000002200213C49096811F00C01002904D01E
:101E8000042905D0082906D021E03849016020E066
:101E9000364901601DE03449096811F47011324A75
:101EA000126812F48032890C891C002A03D1304A4E
:101EB000514301600AE02C4A1268920303D52C4A70
:101EC0005143016002E0294A5143016001E0274982
:101ED00001602549096811F0F0010909254A515CA2
:101EE0000268CA4042602049096811F4E061090AA9
:101EF000204A515C4268CA4082601B49096811F45B
:101F00006051C90A1B4A515C4268CA40C260164906
:101F1000096811F44041890B174A515CC268B2FB51
:101F2000F1F101617047C9B2002905D01349096870
:101F300008431249086005E01049096831EA0000C9
:101F40000E4908607047C9B2002905D00C490968DC
:101F500008430B49086005E00949096831EA0000B7
:101F600007490860704700000410024000127A0020
:101F700000093D0000000020100000201810024061
:101F80001C10024038B54FF40061394800F0E6F803
:101F9000012000F021F9002518E04FF48051344869
:101FA00000F0D9F8012000F017F94FF480513048C3
:101FB00000F0D4F8012000F00FF9640004212D484E
:101FC00000F0BEF8002800D0641C6D1CADB2102DCE
:101FD000E3DB4FF40061264800F0BDF8200080B23A
:101FE00032BD80B5FFF7CEFF80B2000980B2FFF7A7
:101FF00097F90022204BFFF761FA00F017F91F490B
:1020000008601E48006802BD80B501211020FFF75E
:102010008AFF01212020FFF786FF4FF40060ADF812
:10202000000010208DF8030003208DF8020069469F
:102030000F4800F025F80420ADF8000048208DF886
:10204000030003208DF8020069460A4800F018F8E2
:102050004FF48050ADF8000010208DF803000320ED
:102060008DF802006946024800F00AF801BD000040
:1020700000100140001401400000D03F5C0500202A
:1020800070B4002200250023002600240025CA7811
:1020900012F00F02CB78DB0601D58B781A430B7850
:1020A0001B0621D00468002306E0CD78482D02D11C
:1020B00001259D4005615B1C082B14D2012515FAF2
:1020C00003F60D883540B542F5D19E000F25B54089
:1020D000AC4312FA06F52C43CD78282DE5D1012525
:1020E0009D404561E7E704600B88FF2B26DD4468CF
:1020F000002320E0012513F1080615FA06F60D88E5
:102100003540B54216D19E000F25B540AC4312FABA
:1021100006F52C43CD78282D04D1012513F10806AE
:10212000B5404561CD78482D04D1012513F108064D
:10213000B54005615B1C082BDCD3446070BC704764
:102140000022806889B2084201D0012200E000220A
:102150001000C0B2704789B20161704789B2416115
:102160007047000040B2002808D50901274A40B254
:1021700010F00F00104400F8041C03E00901244A89
:1021800040B21154704780B5411EB1F1807F01D338
:1021900001200EE0401E1F4908600F215FF0FF3054
:1021A000FFF7E0FF00201C49086007201B4908607A
:1021B000002002BD80B51A4800681A49B0FBF1F052
:1021C000FFF7E1FF002800D0FEE714480068400850
:1021D00040001249086001BD01B40098124908602E
:1021E0000E48006850F001000C4908600E48006875
:1021F0000028FBD101B070470B480068002804D0CC
:1022000009480068401E08490860704718ED00E062
:1022100000E400E014E000E018E000E010E000E07E
:1022200014000020A0860100540500204FEAF17C34
:10223000BCF1E04C2CBFBCF5001F11E05FEA4C0C78
:1022400034BFBCF17F5F2EE05FEA9C0C4FEA0C1CB0
:102250004FEA3C0CC10071F100414CEB50707047EB
:10226000C90241EA5051C00218BF41F0010141F0DA
:1022700000414FEA6C50C0F10900212810D240EA19
:10228000CC7CCCF1200C11FA0CF070F10040CCF1B8
:10229000200C21FA0CF00CF0004C40EB0C007047C5
:1022A0004FEACC707047490011F5001F04D84FEA7F
:1022B000CC10FF30C0057047C817704780B54FF489
:1022C000E06000F077F81C208DF8000000208DF809
:1022D000010003208DF8020001208DF803006846FC
:1022E00000F06DF801BD80B54FF4E06000F062F8D9
:1022F0001D208DF8000000208DF8010004208DF8CD
:10230000020001208DF80300684600F058F801BD76
:10231000E0B5FFF7D3FF01210120FFF714FE42F2E1
:102320000F70ADF804004720ADF800000020ADF8B4
:1023300006000020ADF8020069465FF08040FFF71C
:1023400067FB01215FF08040FFF71FFC01220121A4
:102350005FF08040FFF7F7FB00215FF08040FFF760
:10236000E4FB07BDE0B5FFF7BEFF01210220FFF748
:10237000EAFD42F20F70ADF804004720ADF800000E
:102380000020ADF806000020ADF8020069460848BC
:10239000FFF73EFB01210648FFF7F7FB0122012171
:1023A0000348FFF7D0FB01210148FFF7BEFB07BD43
:1023B000000400401949084319490860704700218A
:1023C00000220F23C17800291DD01549096811F496
:1023D000E061D1F5E061090AD1F10402CB40417816
:1023E000914082781A40114309010E4A0378D15472
:1023F0000121027812F01F0291400B4A007840112F
:1024000042F8201009E00121027812F01F029140E9
:10241000064A0078401142F8201070470000FA0583
:102420000CED00E000E400E000E100E080E100E00D
:1024300000203849086000203649486000203549AE
:10244000886000203349C86000203249C8610020FC
:102450003049086230482F49086100202D49486101
:1024600000202C498861704710B52A490860294826
:1024700000682849496800F055F8264988602548D1
:10248000016A2448806800F0C1F8224908622148A6
:1024900001692048806800F0FBF804001D4841698C
:1024A0001C48006A00F0F4F8210000F0AFF80400C6
:1024B000184880681749C96800F034F815498969D7
:1024C00000F0E6F8210000F0A1F81249C8611148B7
:1024D00080681049C8600F48C069104900F044F98D
:1024E00004D84FF480700E49088010E00948C06994
:1024F000002100F04BF903D200200949088006E0D2
:102500000448C06900F054F9C0B205490880014888
:10251000C06910BD300500200000A04101008043CB
:102520003C08004090EA010F44BF81F0004100F0F8
:1025300075B800BF431A4FF000423EBF5340C01A67
:10254000C91800BFD3095FEAD05C13EB400F34BF5A
:10255000B3EB410F40E07CEBD1530CD342EA0121B5
:1025600022D8D1EB402009D3400A28BF5FEA5001AE
:1025700040EBCC507047401A15D04002B0FA80F2C0
:10258000521C9040400A4FEA3C23B3EB026384BFE5
:1025900000EB730007E040F400001A16DB07C2F1FD
:1025A0000102D04018437047182BFCDC31FA03F2CB
:1025B00002FA03F3591A38BF42F00102D2EB40206D
:1025C0003CBF4000ACF1010C5FEACC5CC20572F18B
:1025D00000414CEB5020704713EB400F0FD24B00E3
:1025E00009D0ACEBD153022B03DB4902172BDDDD05
:1025F00070479143401A4300D5D10020704713EB38
:10260000410FD0D36FF000007047000090EA010F37
:1026100044BF81F00041FFF78DBF00BF421A3CBFAD
:10262000801A89184FF0004CC0F3C752FF2A24D0FB
:10263000C1F3C75313B3D21AD2F1190327DD4CEA01
:1026400001214CFA03F321EA0303D140C20D4CEA05
:102650000020401834BF20EA0C004CEA5000D2059C
:1026600053EA006373EB0C0C52EB1020420012F1A2
:10267000807F38BF7047C00DC0057047490212BF48
:102680009A4200EB5120F8E7D2F11703D9D57047F1
:10269000FF2212EAD05C1DBF12EAD1539445934247
:1026A0002BE09C44D30780EA01021A4043EA002051
:1026B00043EA0121A1FB0030410038BF40007CF11A
:1026C0007F010BDBFE294ADA5B0842EAC15153EA7B
:1026D000006373F1004C51EB10207047D1F1080CEE
:1026E000DCF120012FDB5B0810FA01F10B4373F1E1
:1026F000004120FA0CF05041704794451CBF02EA9B
:10270000D153934280EA010202F000421DD0400002
:1027100019D0490017D05BB9634514D00902B1FA4A
:1027200081F39940BCEB030CC00140F00040C1E7CD
:102730000002B0FA80FC10FA0CF0B3EB0C0CC901EB
:1027400041F00041B6E71000704740000AD0490050
:1027500008D010F1807F94BF11F1807F02E042F039
:10276000FF407047D04370474FF0807C1CEB400F18
:1027700094BF1CEB410F05E040EA010C5FEA4C0CF2
:1027800001D28142704718BF884270474FF0807C69
:102790001CEB400F94BF1CEB410F05E040EA010C1D
:1027A0005FEA4C0C01D28842704718BF81427047E3
:1027B0004100090E7F3915D4D1F11F0114D4400016
:1027C00007D2C00140F00040C84048BF6FF0004051
:1027D0007047C00140F00040C8404CBF4FF000407F
:1027E000404270470020704700424FF0004058BF01
:1027F000C043704780B5002020212448FFF71AFB12
:10280000012807D140F225512048FFF720FB1F483F
:10281000FFF70CFB01BD80B5002020211C48FFF70D
:1028200009FB012807D140F225511948FFF70FFB9A
:102830001748FFF7FBFA01BD80B501215FF080402A
:10284000FFF7A7F9002804D001215FF08040FFF7CF
:10285000B4F901BD80B501210E48FFF79AF90028AF
:1028600012D001210B48FFF7A8F90B480068401C63
:102870000949086009480068401C08490860084880
:102880000068401C0649086001BD0000004400408B
:10289000004C004000040040580500206005002066
:1028A0006405002080B5FFF7A7FC01BD7047FEE777
:1028B000FEE7FEE7FEE770477047704710B584B04B
:1028C0000024FFF777FC00F097F800F0ADF8FFF771
:1028D0009BFB00F0D1F8FFF71BFDFFF743FDFFF76F
:1028E000A7FD1E4800F014F91D48006890F0140F71
:1028F00006D100201A490860FFF773FB19494860A8
:102900001948006890F0320F1CD100201649086069
:102910001648FFF7A9FD164908601648008880B2DE
:1029200002901348006800F005F9CDE900010D4858
:10293000406800F0FFF802000B0021000E4800F094
:10294000E7F8641C0D48006890F0640FCCD10020BB
:102950000A490860002000F080F8C5E7AC2C0008A8
:102960006005002030050020640500200000484379
:102970005C0500203C080040C02C000858050020E1
:1029800000B585B0012144F20400FFF7CCFA4FF402
:102990000070ADF8000018208DF8030003208DF8BA
:1029A000020069461E48FFF76BFB4FF48060ADF8EC
:1029B000000004208DF8030069461948FFF760FB0A
:1029C0005FF4E13001900020ADF808000020ADF880
:1029D0000A000020ADF80C000020ADF810000C201B
:1029E000ADF80E0001A90F48FFF7AEF901210D481F
:1029F000FFF70AFA05B000BD80B5FFF7C1FF01BDC2
:102A000010B5040040210748FFF714FA0028F9D058
:102A10002100C9B289B20348FFF704FA200010BDB3
:102A2000000801400038014080B501211020FFF767
:102A30007AFA4FF40050ADF8000003208DF8020040
:102A400010208DF8030069460948FFF719FB4FF481
:102A500000510748FFF77FFB01BDC0B2002805D138
:102A60000448006890F40050024908607047000074
:102A7000001001400C10014000B589B00121042074
:102A8000FFF761FA01210920FFF74DFA4FF480703A
:102A9000ADF8000018208DF8030003208DF8020027
:102AA00069461948FFF7ECFAFF20ADF8080041F637
:102AB0003F10ADF804000020ADF80A000020ADF88A
:102AC000060001A91148FEF7A3FF7020ADF8100021
:102AD0000120ADF812000020ADF816000020ADF87E
:102AE000180004A90948FEF7DCFF08210748FFF792
:102AF00044F801210548FFF732F801210348FFF7A8
:102B000014F809B000BD00BF000C014000080040EF
:102B10000EB400B582B003A9009102466B460121B4
:102B2000034878440A30FDF705FB06BC5DF810FB4E
:102B3000590100005FF0FF0C1CEAD05114BF614541
:102B400006E0C110400721F0E04101F160517047FB
:102B500079B900F0004100020AD0B0FA80FC00FA16
:102B60000CF001F16051A1EB0C5101EBD0214005BB
:102B7000704741020CBF40F4E0016FF000010020FB
:102B8000704719E050F8041BCB0744BFA9F10103BB
:102B90005918121F0023042A41F8043BF9D25FEAB6
:102BA000827C0B4604D54FF0000CA1F800C09B1CA2
:102BB000D10744BF0021197050F8042B002AE1D13D
:102BC000704730B5016842688468014401EB5203E4
:102BD000D20748BF4C44994201D10C3030BD11F9A5
:102BE000012B11F8015B002A04F8015B02D5521C8D
:102BF000F9D1F0E7521EF4D5EDE7000010B5074912
:102C000079441831064C7C44163404E00A68081DE7
:102C1000114488470146A142F8D110BD08000000C8
:102C2000240000005FFFFFFF88000000E004002098
:102C3000000000008FFFFFFF78010000820000000D
:102C40000000002000F00BF8002801D0FFF7D6FFAD
:102C50000020AFF30080FFF731FE00F002F8012002
:102C6000704700F001B800000746384600F002F84F
:102C7000FBE7000080B5AFF30080024A1100182086
:102C8000ABBEFBE72600020038B504460D462846D9
:102C900000F006F8A84218BF0024204632BD00000C
:102CA0000149FFF7ADBE00BF1800002073797374AF
:102CB000656D2073746172742E2E2E0D0A00000053
:102CC00025642C25662C25662C25640D0A00000041
:102CD0000148804701480047F11B0008E12C00082B
:102CE000AFF30080AFF30080FFF7ACFFFFF7FEBF4C
:102CF000FFF7FEBFFFF7FEBFFFF7FEBFFFF7FEBF08
:102D0000FFF7FEBFFFF7FEBFFFF7FEBFFFF7FEBFF7
:102D1000FFF7FEBFFFF7FEBFFFF7FEBFFFF7FEBFE7
:102D2000FFF7FEBFFFF7FEBFFFF7FEBFFFF7FEBFD7
:102D3000FFF7FEBFFFF7FEBFFFF7FEBFFFF7FEBFC7
:102D4000FFF7FEBFFFF7FEBFFFF7FEBFFFF7FEBFB7
:102D5000FFF7FEBFFFF7FEBFFFF7FEBFFFF7FEBFA7
:102D6000FFF7FEBFFFF7FEBFFFF7FEBFFFF7FEBF97
:102D7000FFF7FEBFFFF7FEBFFFF7FEBFFFF7FEBF87
:102D8000FFF7FEBFFFF7FEBFFFF7FEBFFFF7FEBF77
:102D9000FFF7FEBFFFF7FEBFFFF7FEBFFFF7FEBF67
:102DA000FFF7FEBFFFF7FEBFFFF7FEBFFFF7FEBF57
:102DB000FC003301020304010203040607080902B0
:102DC00004060800A24A0402040101E004002030C5
:102DD000050020E0040020E0040020E0040020556D
:102DE0000000203C000020C400F8FFDC00FAFFC611
:012DF00000E2
:0400000508002CE1E2
:00000001FF
